:030000000201D02A
:0C01D000787FE4F6D8FD75811D02014423
:1001A90000C000F900A400B000990092008200F894
:0401B900008000982A
:1001BD00C28D758901758C3C758A60D28C308DFD30
:0301CD00C28D22BE
:10018600E4FDFCD3ED9FEC9E5018E4FBFA1201BD92
:100196000BBB00010AEB640B4A70F20DBD00010CAB
:0201A60080E1F6
:0101A8002234
:0700F90075B0FF7F097E00D6
:040100008E088F09CD
:10010400780A7C007D007BFF7A0179A97E007F1448
:100114001200D3850982850883C3E58364809480B3
:10012400401DAF82EF25E0240AF808E6F5907F0130
:0F0134007E00120186E582158270DE158380DA67
:010143002299
:1001440075A0871200F975B0307F027E001201009D
:1001540075A04B1200F975B0907F027E0012010069
:1001640075A02D1200F975B0C07F027E0012010047
:1001740075A01E1200F975B0607F027E00120100A6
:0201840080BE3B
:10000300E709F608DFFA8046E709F208DFFA803EDF
:1000130088828C83E709F0A3DFFA8032E309F608CC
:10002300DFFA8078E309F208DFFA807088828C8334
:10003300E309F0A3DFFA806489828A83E0A3F608E8
:10004300DFFA805889828A83E0A3F208DFFA804CC2
:1000530080D280FA80C680D4806980F28033801099
:1000630080A680EA809A80A880DA80E280CA803302
:1000730089828A83ECFAE493A3C8C582C8CCC5837A
:10008300CCF0A3C8C582C8CCC583CCDFE9DEE7804A
:100093000D89828A83E493A3F608DFF9ECFAA9F0C9
:1000A300EDFB2289828A83ECFAE0A3C8C582C8CC1F
:1000B300C583CCF0A3C8C582C8CCC583CCDFEADE38
:1000C300E880DB89828A83E493A3F208DFF980CC9A
:1000D30088F0EF60010E4E60C388F0ED2402B40493
:1000E3000050B9F582EB2402B4040050AF2323453A
:0600F3008223900053730C
:00000001FF
